:100000000C9462000C948A000C948A000C948A0070
:100010000C948A000C948A000C948A000C948A0038
:100020000C948A000C948A000C948A000C948A0028
:100030000C948A000C948A000C948A000C948A0018
:100040000C948C080C948A000C9412030C94EC020F
:100050000C948A000C948A000C948A000C948A00F8
:100060000C9461030C948A00000000002400270017
:100070002A0000000000250028002B0000000008D6
:10008000000201000003040700000000000000005F
:1000900000000000230026002900040404040404D6
:1000A0000404020202020202030303030303010227
:1000B00004081020408001020408102001020408F6
:1000C0001020050B11241FBECFEFD8E0DEBFCDBF3F
:1000D00011E0A0E0B1E0E2E7FAE102C005900D9284
:1000E000A639B107D9F723E0A6E9B1E001C01D9216
:1000F000AB31B207E1F710E0C2E6D0E004C02197CF
:10010000FE010E942C0DC136D107C9F70E94D60806
:100110000C94370D0C940000CF92DF92EF92FF9277
:100120000F931F93CF93DF936C017A018B01C0E093
:10013000D0E0CE15DF0581F0D8016D918D01D6019B
:10014000ED91FC910190F081E02DC6010995892B7C
:1001500011F02196EECF7E01C701DF91CF911F9163
:100160000F91FF90EF90DF90CF900895FC01538D99
:10017000448D252F30E0842F90E0821B930B541781
:1001800010F0CF96089501970895FC01918D828D0E
:10019000981761F0828DDF01A80FB11D5D968C91DB
:1001A000928D9F5F9F73928F90E008958FEF9FEFE6
:1001B0000895FC01918D828D981731F0828DE80FA2
:1001C000F11D858D90E008958FEF9FEF0895FC015C
:1001D000918D228D892F90E0805C9F4F821B910929
:1001E0008F73992708958EE492E00E94E70021E042
:1001F000892B09F420E0822F0895FC01848DDF0112
:10020000A80FB11DA35ABF4F2C91848D90E0019689
:100210008F739927848FA689B7892C93A089B18978
:100220008C91837080648C93938D848D981306C019
:100230000288F389E02D80818F7D80830895EF927D
:10024000FF920F931F93CF93DF93EC0181E0888F90
:100250009B8D8C8D981305C0E889F989808185FD77
:1002600026C0F62E0B8D10E00F5F1F4F0F73112766
:10027000E02E8C8DE8120CC00FB607FCFACFE8898F
:10028000F989808185FFF5CFCE010E94FD00F1CF75
:100290008B8DFE01E80FF11DE35AFF4FF0829FB7EF
:1002A000F8940B8FEA89FB89808180620AC09FB72E
:1002B000F894EE89FF896083E889F98980818370E9
:1002C000806480839FBF81E090E0DF91CF911F9198
:1002D0000F91FF90EF900895CF93DF93EC01888DFD
:1002E0008823C9F0EA89FB89808185FD05C0A8893A
:1002F000B9898C9186FD0FC00FB607FCF5CF8081C0
:1003000085FFF2CFA889B9898C9185FFEDCFCE0109
:100310000E94FD00E7CFDF91CF91089580E090E04B
:10032000892B29F00E94F30081110C94000008959C
:1003300085ED8093BC008091BC0084FDFCCF1092C1
:10034000450208954091D601262F30E0240F311D3B
:1003500021323105DCF4209145022430C9F4FC013E
:1003600080E090E0861758F43091D6012191DC01AD
:10037000AA54BE4FA30FB11D2C930196F3CF8091C9
:10038000D601680F6093D60180E0089581E008955A
:1003900082E00895089508950895E09149028091BA
:1003A0004802E81730F4F0E0EA56FE4F808190E012
:1003B00008958FEF9FEF0895909149028091480230
:1003C000981750F4E92FF0E0EA56FE4F208130E014
:1003D0009F5F9093490202C02FEF3FEFC90108953C
:1003E0008091480290E020914902821B9109089572
:1003F000CF92DF92EF92FF920F931F93CF93DF93F1
:100400007C01CB018A0120911D02222389F0EB019E
:100410006B01C40ED51ECC15DD0569F06991D701BD
:10042000ED91FC910190F081E02DC7010995F3CF8A
:10043000642F0E94A201C801DF91CF911F910F91FB
:10044000FF90EF90DF90CF900895CF93DF931F92AE
:10045000CDB7DEB7698320911D022223D1F0209110
:100460004602203240F021E030E0FC013383228359
:1004700080E090E015C080914702E82FF0E0E25E56
:10048000FD4F998190838F5F80934702809346024E
:1004900005C061E0CE0101960E94A20181E090E0DA
:1004A0000F90DF91CF910895CF93FC01C48121E09B
:1004B00020931D02C0933E02109247021092460202
:1004C0008385682B8BEE92E00E9425029091460274
:1004D000913208F045C0809145028111FCCF82E045
:1004E0008093450281E0809344028FEF80931C0249
:1004F00010921B0290931A02AEE1B2E0EAEFF1E033
:1005000080E0981721F02D9121938F5FFACF109200
:10051000F9018091F901CC0FC82BC093F9018091AA
:100520004302813061F4109243028091F90180937B
:10053000BB008091BC0083FDF8CF85EC01C085EE47
:100540008093BC00809145028230E1F380911C02CF
:100550008F3F31F080911C02803211F080911C029B
:10056000109247021092460210921D02CF910895F8
:100570000F931F93CF938C01C62F0E9454026C2FB0
:100580006460C8010E9454026C2F6B7FC8010E94F6
:10059000540283EC90E00197F1F7CF911F910F91F6
:1005A0000895089580E090E008950E94320D61154D
:1005B000710579F0FB0101900020E9F73197AF0157
:1005C000461B570BDC01ED91FC910280F381E02D7D
:1005D000099480E090E008951F920F920FB60F9259
:1005E00011242F933F934F935F936F937F938F9338
:1005F0009F93AF93BF93EF93FF938EE492E00E949B
:10060000FD00FF91EF91BF91AF919F918F917F91ED
:100610006F915F914F913F912F910F900FBE0F906F
:100620001F9018951F920F920FB60F9211242F93BF
:100630008F939F93EF93FF93E0915E02F0915F029F
:100640008081E0916402F091650282FD12C0908188
:10065000809167028F5F8F7320916802821751F03B
:10066000E0916702F0E0E25BFD4F958F80936702B7
:1006700001C08081FF91EF919F918F912F910F90F9
:100680000FBE0F901F9018950F931F93CF93DF937A
:100690008C01C62FD42F607F642B0E94B80280E1AA
:1006A000C89FB00111246D2BC801DF91CF911F911C
:1006B0000F910C94B80241E00E94440381E090E065
:1006C00008951F920F920FB60F9211242F933F930C
:1006D0004F935F936F937F938F939F93AF93BF934A
:1006E000EF93FF938091B900887F803609F49CC016
:1006F00068F5883209F45BC090F4803109F454C085
:1007000038F4882309F4F6C0883009F44DC0F6C0E7
:10071000883109F44CC0803209F45DC0EFC08034E8
:1007200009F468C048F4803309F455C0883309F0EF
:10073000E5C080931C02D8C0803509F44FC08835CD
:1007400009F45DC0883409F0D9C0D6C0883909F4ED
:10075000C7C0A8F4883709F467C038F4883609F4AC
:1007600063C0803709F460C0C9C0883809F4B8C0D4
:10077000803909F45FC0803809F0C0C05BC0803B9D
:1007800009F486C038F4803A09F466C0883A09F45E
:100790007FC0B4C0803C09F4A7C0883C09F4A4C061
:1007A000883B09F48AC0AAC08091F90110C09091D9
:1007B0001B0280911A02981770F5E0911B0281E0EC
:1007C0008E0F80931B02F0E0E650FE4F80818093F5
:1007D000BB0085EC86C080931C028EC0E0911B029A
:1007E00081E08E0F80931B028091BB00F0E0E65009
:1007F000FE4F808390911B0280911A026EC0E0919F
:100800001B0281E08E0F80931B028091BB00F0E001
:10081000E650FE4F80838091440281116DC081E0DB
:100820008093430284EA61C083E080934502109282
:10083000F801CFCF8091F801803208F051C0E091EB
:10084000F80181E08E0F8093F8018091BB00F0E009
:10085000E852FE4F8083BDCF85EC8093BC001092A0
:1008600045028091F801803230F4E091F801F0E027
:10087000E852FE4F10826091F80170E0E0913F0273
:10088000F091400288ED91E009951092F80136C090
:1008900084E0809345021092D7011092D601E09136
:1008A0004102F091420209958091D601811105C063
:1008B00081E08093D6011092B601E091D70181E0EA
:1008C0008E0F8093D701F0E0EA54FE4F8081809331
:1008D000BB009091D7018091D601981708F479CF89
:1008E00085E88093BC000AC085EC8093BC00109220
:1008F000450204C010921C020E949801FF91EF91E2
:10090000BF91AF919F918F917F916F915F914F9127
:100910003F912F910F900FBE0F901F901895CF927F
:10092000DF92EF92FF92CF93DF93B0910A03882377
:1009300011F0AB2F01C0A0E080910B0390E0880F75
:10094000991F80579F4FC0901003D0901103E090E3
:100950001203F090130320E030E0FC01C591D49124
:10096000E881EB23A90160E070E0EA130CC02F5F7F
:100970003F4F4C155D056E057F0578F33FEF2FEF78
:100980008FEF9FEF03C0322F252FCB01632F722FE4
:10099000DF91CF91FF90EF90DF90CF90089590E09E
:1009A000FC01E458FF4F2491FC01E255FF4F3491C4
:1009B000FC01E656FF4FE491EE2309F43CC02223EC
:1009C00039F1233091F038F42130A9F0223001F5CB
:1009D00084B58F7D12C0273091F02830A1F02430EB
:1009E000B9F4809180008F7D03C0809180008F7763
:1009F000809380000DC084B58F7784BD09C080913D
:100A0000B0008F7703C08091B0008F7D8093B000DD
:100A1000F0E0EE0FFF1FEE58FF4FA591B4919FB786
:100A2000F894611104C08C913095382302C0EC9188
:100A30003E2B3C939FBF08953FB7F89480911703D6
:100A400090911803A0911903B0911A0326B5A89BA1
:100A500005C02F3F19F00196A11DB11D3FBFBA2F50
:100A6000A92F982F8827820F911DA11DB11DBC01B0
:100A7000CD0142E0660F771F881F991F4A95D1F775
:100A80000895EEE4F2E0A089B18982E08C93A48518
:100A9000B5851C92A685B7858FEC8C93108EA489A2
:100AA000B58986E08C93A289B3898C9180618C93FF
:100AB000A289B3898C9188608C93A289B3898C9127
:100AC00080688C930288F389E02D80818F7D8083FC
:100AD00008958F929F92AF92BF920F931F93CF93DF
:100AE000DF93CDB7DEB7A1970FB6F894DEBF0FBE88
:100AF000CDBF19A2423008F44AE08E010F5D1F4FAE
:100B0000842E912CA12CB12CA50194010E940A0DD8
:100B1000E62FB901CA0101501109EA3014F4E05D71
:100B200001C0E95CD801EC93232B242B252B61F722
:100B3000B80187EF92E00E94D702A1960FB6F89411
:100B4000DEBF0FBECDBFDF91CF911F910F91BF9040
:100B5000AF909F908F900895CF93DF93CDB7DEB77E
:100B600028970FB6F894DEBF0FBECDBF98E0E0E245
:100B7000F1E0DE01119601900D929A95E1F79091C6
:100B8000FF02961710F46FEF690FFE013196E60F22
:100B9000F11DE60FF11D6081680F606840E087EF8E
:100BA00092E028960FB6F894DEBF0FBECDBFDF915E
:100BB000CF910C944403CF92DF92EF92FF92CF93A8
:100BC000809109038C3009F446C018F48B30D1F0C1
:100BD00062C08551823008F05EC0C09105036C2F61
:100BE0006F7770E0762F662780910603682B80E090
:100BF00090E00E940F0C2DEC3CEC4CEC5DE30E946D
:100C00009D0C45C06091050370E080E090E00E947B
:100C10000F0C6B017C01C0910603C7FF0AC09B014A
:100C2000AC0160E070E080E89FEB0E946C0B6B0110
:100C30007C016C2F6F7070E080E090E00E94110CDE
:100C40002DEC3CEC4CEC5DE30E949D0CA701960161
:100C50000E946D0B24C0C09105036C2F70E080E0F2
:100C600090E00E940F0C6B017C01609106036F7095
:100C700070E080E090E00E94110C2DEC3CEC4CEC1C
:100C80005DE30E949D0CA70196010E946D0BC7FFBA
:100C900006C0905804C060E070E080EC9FE7CF9100
:100CA000FF90EF90DF90CF900895CF93DF93BC013A
:100CB0008EE492E00E94D702EC0163E971E08EE4D9
:100CC00092E00E94D7028C0F9D1FDF91CF91089573
:100CD000BC0187EF92E00C94D7020F931F93CF9340
:100CE000DF938B01877098E0899FB00111246064C5
:100CF00040E087EF92E00E944403E801085F1F4F45
:100D0000699187EF92E00E945B03C017D107C1F79A
:100D1000DF91CF911F910F91089510924902109287
:100D2000480210924702109246021092450281E05A
:100D3000809344021092430261E082E10E94CF045A
:100D400061E083E10E94CF04E9EBF0E080818E7FD7
:100D5000808380818D7F808388E48093B80085E4E0
:100D60008093BC008AEC91E0909342028093410210
:100D70008BEC91E09093400280933F020895CF93D3
:100D8000DF9390E0FC01E255FF4F2491FC01E65611
:100D9000FF4F8491882361F190E0880F991FFC0137
:100DA000E859FF4FC591D491FC01EE58FF4FA59132
:100DB000B491611109C09FB7F8948881209582236E
:100DC0008883EC912E230BC0623061F49FB7F894B6
:100DD0008881322F309583238883EC912E2B2C939E
:100DE0009FBF06C08FB7F894E8812E2B28838FBF52
:100DF000DF91CF9108958F929F92AF92BF92CF9241
:100E0000DF92EF92FF926B017C010E941C054B0167
:100E10005C01C114D104E104F104F1F00E941C054D
:100E2000DC01CB0188199909AA09BB09883E9340C6
:100E3000A105B10570F321E0C21AD108E108F1085B
:100E400088EE880E83E0981EA11CB11CC114D10449
:100E5000E104F10419F7DDCFFF90EF90DF90CF9020
:100E6000BF90AF909F908F900895CF92DF92EF92B6
:100E7000FF920F931F93CF93DF93CDB7DEB7C0548C
:100E8000D1400FB6F894DEBF0FBECDBF2FB7F89498
:100E900080914A0290914B02A0914C02B0914D0278
:100EA0002FBF40910C0350910D0360910E03709180
:100EB0000F038C019D01041B150B260B370BB90189
:100EC000A801403D57406105710518F48091140355
:100ED000CAC080930C0390930D03A0930E03B093AC
:100EE0000F0310920703109206031092050310924D
:100EF00004031092030362E0809108030E94BF067E
:100F000061E070E080E090E00E94FB0661E080918B
:100F100008030E94BF0660E0809108030E94CF048E
:100F2000809109038551823028F48BE291E1019789
:100F3000F1F706C064E170E080E090E00E94FB06FB
:100F400062E0809108030E94BF068091150390E043
:100F50008230910538F0880F991F880F991F0597E7
:100F60000197F1F7F89480E00E948F046F3F7F4F64
:100F70008F4F9F4F21F410921403789441C081E069
:100F80000E948F046F3F7F4F8F4F9F4FA1F38E01C1
:100F90000F5F1F4F6E018FEBC81A8EEFD80A7801D2
:100FA00080E00E948F04F7016083718382839383C2
:100FB00081E00E948F04F7016483758386839783A1
:100FC000F8E0EF0EF11CEC14FD0451F7789420E0EA
:100FD00030E0F801C080D180E280F3804481558107
:100FE00066817781FFEFCF16DF06EF06FF0631F04F
:100FF0004F3F8FEF58076807780721F410921403CA
:1010000080E031C0F90183E0F595E7958A95E1F735
:10101000ED5FFC4F8081880FC416D506E606F70603
:1010200008F4816080832F5F3F4F085F1F4F283295
:10103000310579F62091070330E040910303809158
:10104000040390E0840F911D40910503840F911DCE
:1010500040910603840F911D99272817390771F6CF
:1010600081E080931403C05CDE4F0FB6F894DEBFBE
:101070000FBECDBFDF91CF911F910F91FF90EF90E9
:10108000DF90CF900895CF92DF92EF92FF920E946F
:1010900035078823C1F1809109038B30A0F18D3091
:1010A000A8F08551823078F56091030370910403B4
:1010B00076276727762780E090E00E940F0C2DECC2
:1010C0003CEC4CEC5DE30E949D0C21C0609104035C
:1010D00070E080E090E00E94110C2DEC3CEC4CECB8
:1010E0005DE30E949D0C6B017C016091030370E045
:1010F00080E090E00E94110C9B01AC01C701B60199
:101100000E946D0B04C060E070E080EC9FE7FF90F0
:10111000EF90DF90CF9008951F920F920FB60F922D
:1011200011242F933F938F939F93AF93BF938091FD
:101130004A0290914B02A0914C02B0914D02309125
:10114000160323E0230F2D3720F40196A11DB11DB6
:1011500005C026E8230F0296A11DB11D209316039A
:1011600080934A0290934B02A0934C02B0934D029D
:101170008091170390911803A0911903B0911A035D
:101180000196A11DB11D8093170390931803A0939E
:101190001903B0931A03BF91AF919F918F913F9123
:1011A0002F910F900FBE0F901F901895789484B5D3
:1011B000826084BD84B5816084BD85B5826085BD53
:1011C00085B5816085BD80916E00816080936E00E1
:1011D00010928100809181008260809381008091D3
:1011E0008100816080938100809180008160809384
:1011F00080008091B10084608093B1008091B00044
:1012000081608093B00080917A00846080937A003E
:1012100080917A00826080937A0080917A00816068
:1012200080937A0080917A00806880937A0010928F
:10123000C1000E9441050E9441050E948D060E9446
:101240008D061092FC0280910103823018F098E024
:101250009093FC028093FF0262E370E080E090E0F4
:101260000E94FB066091020387EF92E00E94540205
:1012700068EE73E080E090E00E94FB0660E387EF99
:1012800092E00E94B802CBE4D6E4CE010197F1F7D8
:1012900060E387EF92E00E94B8022197F1F760E3E4
:1012A00087EF92E00E94B80283E592E00197F1F7A0
:1012B00060E287EF92E00E94B8026091FC026062F7
:1012C00040E087EF92E00E94440384E08093FD02B7
:1012D00040E06CE087EF92E00E94440340E061E070
:1012E00087EF92E00E944403CBE3DFE1CE01019758
:1012F000F1F782E08093FE0240E066E087EF92E043
:101300000E94440340E062E087EF92E00E944403C1
:101310002197F1F788E08093020360E087EF92E085
:101320000E94540268E171E081E00E946D0660E075
:1013300088E00E94BF0660E089E00E94BF0662E08C
:10134000809108030E94BF062FB7F89480914A024B
:1013500090914B02A0914C02B0914D022FBF805D45
:101360009740A109B10980930C0390930D03A093BA
:101370000E03B0930F0387E38093150368E071E0D9
:1013800080E00E946D0660E071E082E00E946D06E0
:1013900060E080E00E94AC0562E087EF92E00E948E
:1013A0005B0360E08FE00E94AC0562E087EF92E0B3
:1013B0000E945B0361E080E00E94AC0562E087EF81
:1013C00092E00E945B0361E08FE00E94AC0562E066
:1013D00087EF92E00E945B0360E084E00E94AC052E
:1013E00061E087EF92E00E945B0388E591E00E9454
:1013F000680660E087EF92E00E945B0361E084E0B2
:101400000E94AC058EE591E00E946806C3E0D0E042
:1014100061E08BE00E94AC0588E791E00E946806DD
:101420006CE271E080E090E00E94FB0661E08CE0FD
:101430000E94AC0588E791E00E9468066CE271E0CA
:1014400080E090E00E94FB0661E08DE00E94AC0528
:1014500088E791E00E9468066CE271E080E090E02D
:101460000E94FB0661E08BE00E94AC058AE791E0F8
:101470000E946806219761F640E061E087EF92E004
:101480000E9444038BE39FE10197F1F768E171E06B
:1014900080E00E946D0660E171E083E00E946D06CD
:1014A00060E080E00E94AC0586E691E00E9468065C
:1014B00060E086E00E94AC058BE691E00E94680641
:1014C00060E089E00E94AC0561E087EF92E00E9455
:1014D0005B0360E08AE00E94AC0588E591E00E9431
:1014E000680660E08FE00E94AC0563E087EF92E061
:1014F0000E945B0361E080E00E94AC058DE691E014
:101500000E94680660E084E00E94AC050E943507F6
:10151000882319F00E94DB0504C060E070E080ECD5
:101520009FE70E94D90B6B01770FEE08FF08F7FECB
:101530000FC041E06DE287EF92E00E94440366270E
:101540007727CB016C197D098E099F094AE003C0FA
:101550004AE0C701B6010E94690560E087E00E9489
:10156000AC050E9443080E94D90B6B01770FEE086F
:10157000FF08F7FE0FC041E06DE287EF92E00E94A6
:10158000440366277727CB016C197D098E099F09D3
:101590004AE003C04AE0C701B6010E9469050E9403
:1015A0003507882329F00E94DB056B017C0106C00A
:1015B000C12CD12C80ECE82E8FE7F82E0E94430836
:1015C0008EE791E00E945506C701B6010E94D90B33
:1015D000693171055CF461E08AE00E94AC0585E840
:1015E00091E00E94680685E891E00AC061E08AE027
:1015F0000E94AC058CE891E00E9468068CE891E0BE
:101600000E9455060E948E017DCFEEE4F2E0138227
:10161000128288EE93E0A0E0B0E084839583A683F5
:10162000B7832CE231E03183208325EC30E035872D
:10163000248724EC30E03787268720EC30E0318B9C
:10164000208B21EC30E0338B228B22EC30E0358B89
:10165000248B26EC30E0378B268B118E128E138E66
:10166000148EEBEEF2E01382128284839583A683BC
:10167000B7838EE391E091838083A3E0B3E082E0BF
:1016800015968C9315979BE016969C931697E0EB16
:10169000F0E0E4911796EC931797ECE9F0E0E49111
:1016A0001896EC93189740E85EE360E070E01D96B2
:1016B0004D935D936D937C935097E7EFF2E0138227
:1016C000128220E531E03183208397E2948390E118
:1016D00091878287138608955058BB27AA270E94B6
:1016E000840B0C94630C0E94550C38F00E945C0C27
:1016F00020F039F49F3F19F426F40C94520C0EF4A8
:10170000E095E7FB0C944C0CE92F0E94740C58F305
:10171000BA17620773078407950720F079F4A6F5D6
:101720000C94960C0EF4E0950B2EBA2FA02D0B0105
:10173000B90190010C01CA01A0011124FF27591B16
:1017400099F0593F50F4503E68F11A16F040A22F1C
:10175000232F342F4427585FF3CF4695379527958D
:10176000A795F0405395C9F77EF41F16BA0B620B8C
:10177000730B840BBAF09150A1F0FF0FBB1F661FD3
:10178000771F881FC2F70EC0BA0F621F731F841F16
:1017900048F4879577956795B795F7959E3F08F03C
:1017A000B0CF9395880F08F09927EE0F97958795FE
:1017B00008950E94E00B6894B1110C94970C089561
:1017C0000E947C0C88F09F5798F0B92F9927B75149
:1017D000B0F0E1F0660F771F881F991F1AF0BA95D5
:1017E000C9F714C0B13091F00E94960CB1E0089591
:1017F0000C94960C672F782F8827B85F39F0B93F83
:10180000CCF3869577956795B395D9F73EF4909587
:101810008095709561957F4F8F4F9F4F0895E89405
:1018200009C097FB3EF490958095709561957F4F28
:101830008F4F9F4F9923A9F0F92F96E9BB279395D6
:10184000F695879577956795B795F111F8CFFAF4E6
:10185000BB0F11F460FF1BC06F5F7F4F8F4F9F4F17
:1018600016C0882311F096E911C0772321F09EE875
:10187000872F762F05C0662371F096E8862F70E0DB
:1018800060E02AF09A95660F771F881FDAF7880FB5
:101890009695879597F9089597F99F6780E870E086
:1018A00060E008959FEF80EC089500240A941616D6
:1018B000170618060906089500240A94121613063E
:1018C000140605060895092E0394000C11F48823CC
:1018D00052F0BB0F40F4BF2B11F460FF04C06F5FE8
:1018E0007F4F8F4F9F4F089557FD9058440F551FBE
:1018F00059F05F3F71F04795880F97FB991F61F092
:101900009F3F79F087950895121613061406551F08
:10191000F2CF4695F1DF08C0161617061806991F74
:10192000F1CF86957105610508940895E894BB2769
:1019300066277727CB0197F908950E94B00C0C9485
:10194000630C0E94550C38F00E945C0C20F095232B
:1019500011F00C944C0C0C94520C11240C94970C18
:101960000E94740C70F3959FC1F3950F50E0551FC2
:10197000629FF001729FBB27F00DB11D639FAA27E4
:10198000F00DB11DAA1F649F6627B00DA11D661F33
:10199000829F2227B00DA11D621F739FB00DA11D54
:1019A000621F839FA00D611D221F749F3327A00D0E
:1019B000611D231F849F600D211D822F762F6A2FAA
:1019C00011249F5750409AF0F1F088234AF0EE0F0F
:1019D000FF1FBB1F661F771F881F91505040A9F73C
:1019E0009E3F510580F00C944C0C0C94970C5F3F7B
:1019F000E4F3983ED4F3869577956795B795F79578
:101A0000E7959F5FC1F7FE2B880F911D96958795EF
:101A100097F90895A1E21A2EAA1BBB1BFD010DC068
:101A2000AA1FBB1FEE1FFF1FA217B307E407F5078E
:101A300020F0A21BB30BE40BF50B661F771F881F6A
:101A4000991F1A9469F760957095809590959B0100
:101A5000AC01BD01CF010895EE0FFF1F0590F49179
:101A6000E02D099481E090E0F8940C94370DF894FF
:021A7000FFCFA6
:101A7200150A150A150A150A0404080808101000A8
:101A82000404080808101000040402020201010004
:101A92000000400014005400000000001F018C00F0
:101AA200B6006C01E700C500D90000000000250265
:101AB200F801D202CC01F001DC01CD0100000000EE
:101AC2005B038C00D202D1024974536B79004C6FD4
:101AD2006164696E67005426483A007C00524742AE
:101AE200636F6C6F723A23002E0020202000492081
:101AF200776F726B0046464646464600464641456B
:061B02003030000D0A0066
:00000001FF
