:100000000C94D3000C94FB000C94FB000C94FB00AC
:100010000C94FB000C94FB000C94FB000C94FB0074
:100020000C94FB000C94FB000C945D040C94CF0426
:100030000C94FB000C94FB000C94FB000C94FB0054
:100040000C94FB000C94FB000C94FB000C94FB0044
:100050000C94FB000C94FB000C94FB000C94130418
:100060000C94FB000C94FB000C94FB000C94FB0024
:100070000C94FB000C94FB000C94FB000C94FB0014
:100080000C94FB000C94FB000C94FB000C94FB0004
:100090000C94FB000C94FB000C94FB000C94FB00F4
:1000A0000C94FB000C94FB000C94FB007B017E0184
:1000B0006D01710175019F019F019F018201860100
:1000C0008A01900194019F019A01080B000202022B
:1000D00001000904000001020200000524001001D3
:1000E0000524010101042402060524060001070578
:1000F000810310004009040100020A000000070506
:1001000002024000000705830240000004030904C6
:1001100012010002EF020140412339800001010277
:10012000030141726475696E6F204C4C4300526F3D
:10013000626F74204D6F746F720000000000240025
:1001400027002A002D0030000000000025002800B4
:100150002B002E00310004040404040304050202F1
:100160000202040302020202060606060606040450
:100170000202020404080201104080401020408066
:1001800040800802040180402010020110801020ED
:1001900040400000000200090F0000030401000CB1
:1001A00000000000F00711241FBECFEFDAE0DEBF31
:1001B000CDBF11E0A0E0B1E0E4E2F0E102C00590C3
:1001C0000D92A633B107D9F721E0A6E3B1E001C053
:1001D0001D92A53AB207E1F710E0C3EDD0E004C0EC
:1001E0002197FE010E940508C23DD107C9F70E9470
:1001F0000D070C9410080C9400002091A40121110B
:1002000003C08FEF9FEF08955FB7F89422E020932B
:10021000E9002091F20030E01216130614F421E0F8
:1002200030E0422FFC0184E6415038F0289880935A
:10023000A3019091F1009193F7CF2115310521F0A1
:100240008091F200882319F05FBFC90108958BE601
:100250008093E800F9CF2FB7F89483E08093E9000A
:100260009091E800892F807295FF04C09091F20070
:1002700080E4891B2FBF089580919B0181110DC0DF
:1002800082E08093970184E08093980110929A0114
:100290001092990181E080939B0187E991E0089594
:1002A000362F90E0FC01EE56FE4F4491FC01EC58D5
:1002B000FE4F2491FC01EA5AFE4F8491882309F4F1
:1002C00052C04423E1F150E0FA013197EF30F105DB
:1002D000B0F5EA5AFF4F0C940508909180009F7783
:1002E00007C0909180009F7D03C090918000977F10
:1002F0009093800024C094B59F7702C094B59F7DF1
:1003000094BD1DC0909190009F7707C09091900080
:100310009F7D03C090919000977F909390000FC0B5
:100320009091C0009F7703C09091C0009F7D9093F3
:10033000C00005C09091C200977F9093C200E82F43
:10034000F0E0EE0FFF1FE85BFE4FA591B4919FB761
:10035000F894311104C08C912095282302C0EC91AF
:100360002E2B2C939FBF08953FB7F8948091930153
:1003700090919401A0919501B091960126B5A89B0A
:1003800005C02F3F19F00196A11DB11D3FBFBA2F27
:10039000A92F982F8827820F911DA11DB11DBC0187
:1003A000CD0142E0660F771F881F991F4A95D1F74C
:1003B00008958F929F92AF92BF92CF92DF92EF9269
:1003C000FF926B017C010E94B4014B015C01C114DE
:1003D000D104E104F104F1F00E94B401DC01CB018D
:1003E00088199909AA09BB09883E9340A105B1055E
:1003F00070F321E0C21AD108E108F10888EE880EF6
:1004000083E0981EA11CB11CC114D104E104F104C5
:1004100019F7DDCFFF90EF90DF90CF90BF90AF90B6
:100420009F908F900895409138015091390120910B
:1004300036013091370142175307B4F49091E80028
:100440009570E1F39091E80092FD19C08093F1005E
:10045000809138019091390101968F739927892BEA
:1004600019F48EEF8093E800809138019091390162
:100470000196909339018093380181E0089580E0DE
:100480000895DF92EF92FF920F931F93CF93DF9324
:10049000D82EF92EE42E062F10E0C8010196880F01
:1004A0000E94130283E00E941302CD2DDF2D0C0F5A
:1004B0001D1FC017D10789F0E7FE03C0FE0184911C
:1004C00001C088810E941302F82E80E00E9413026E
:1004D0008F2121968111EDCF01C081E0DF91CF9175
:1004E0001F910F91FF90EF90DF900895DF92EF92B0
:1004F000FF920F931F93CF93DF93D82E8A017B0136
:10050000E40EF51EEB01CE15DF0571F0D7FE03C03A
:10051000FE01849101C088810E94130221968111FD
:10052000F2CF8FEF9FEF01C0C801DF91CF911F91F4
:100530000F91FF90EF90DF9008950F931F93CF934B
:10054000DF931F92CDB7DEB782E0898342E450E0AB
:100550006AEC70E080E80E9476020E943C01DC01B7
:1005600012960D911C9113970115110589F0D80170
:10057000ED91FC910280F381E02DBE016F5F7F4F12
:10058000C801099597FD04C0F80100851185ECCFDD
:1005900089810F90DF91CF911F910F910895615044
:1005A00030F02091F100FC0120830196F8CF2898CB
:1005B00084E68093A3010895CF92DF92EF92FF9299
:1005C0000F931F93CF93DF936C017A018B01C0E0EF
:1005D000D0E0CE15DF0581F0D8016D918D01D601F7
:1005E000ED91FC910190F081E02DC6010995892BD8
:1005F00011F02196EECF7E01C701DF91CF911F91BF
:100600000F91FF90EF90DF90CF9008958F929F927F
:10061000AF92BF92CF92DF92EF92FF920F931F9310
:10062000CF93DF936C017B018A0180910B018823BA
:1006300009F45CC08091A401882309F457C080911B
:100640003C0180FF05C08091E00082608093E00063
:10065000E801B12C8AEFA82E93E0892E2AE3922E8E
:10066000209711F4BB20D9F10E942B0181110AC0FF
:10067000AA94AA20D9F161E070E080E090E00E94A5
:10068000D901EECF282F30E0C217D3070CF48C2FFE
:100690009FB7F8948092E9002091E80025FF1DC0E3
:1006A000282F30E0C21BD30BF701815020F041917D
:1006B0004093F100FACFE20EF31EBB2019F09092A6
:1006C000E8000AC08091E80085FD07C09092E8002C
:1006D000BB24B394209709F0B12C9FBFC1CF5D9884
:1006E00084E680933B011016110644F081E090E00F
:1006F000F6019383828380E090E001C0C801DF911E
:10070000CF911F910F91FF90EF90DF90CF90BF900E
:10071000AF909F908F900895CF93DF931F92CDB7A6
:10072000DEB76983DC01ED91FC910280F381E02D5D
:1007300041E050E0BE016F5F7F4F09950F90DF9160
:10074000CF91089583E08093E9008091F20088239F
:1007500019F08AE38093E80008950E942B0190E04D
:100760000895CF93DF931F92CDB7DEB7FC01848548
:10077000958597FD05C02FEF3FEF358724870BC088
:10078000CE0101960E94FD00019719F4898190E045
:1007900002C08FEF9FEF0F90DF91CF9108950F93DD
:1007A0001F93CF93DF931F92CDB7DEB78C01FC016F
:1007B0008485958597FF0EC0CE0101960E94FD00AD
:1007C000019719F4898190E002C08FEF9FEFF80143
:1007D00095878487F801848595850F90DF91CF9167
:1007E0001F910F910895FC018485958597FD0BC09D
:1007F0009FB7F89482E08093E9008091F2009FBF58
:1008000090E0019608959FB7F89482E08093E90004
:100810008091F2009FBF90E00895089580E090E0FD
:1008200008950E940B081F920F920FB60F92112489
:100830002F933F938F939F93AF93BF9380918F019B
:1008400090919001A0919101B091920130918E010F
:1008500023E0230F2D3720F40196A11DB11D05C003
:1008600026E8230F0296A11DB11D20938E018093CF
:100870008F0190939001A0939101B0939201809188
:10088000930190919401A0919501B09196010196E8
:10089000A11DB11D8093930190939401A0939501A4
:1008A000B0939601BF91AF919F918F913F912F91FE
:1008B0000F900FBE0F901F9018951F920F920FB6BA
:1008C0000F9211248F939F938091E1009091E1000A
:1008D000937F9093E10083FF0FC01092E90091E0B5
:1008E0009093EB001092EC0092E39093ED00109245
:1008F000A40198E09093F00082FF20C093E09093D1
:10090000E9009091F200992319F09AE39093E8009E
:1009100090913B01992339F090913B019150909334
:100920003B01992389F19091A301992339F090918A
:10093000A30191509093A301992341F184FF10C02A
:100940008091E2008E7E81608093E2008091E100E0
:100950008F7E8093E10080913C018E7E806111C08A
:1009600080FF16C08091E2008E7E80618093E2005D
:100970008091E1008E7E8093E10080913C018E7E2B
:10098000816080933C0104C05D9ACDCF289AD6CF78
:100990009F918F910F900FBE0F901F9018951F92EF
:1009A0000F920FB60F921124CF92DF92EF92FF9227
:1009B0000F931F932F933F934F935F936F937F9367
:1009C0008F939F93AF93BF93EF93FF93CF93DF9357
:1009D000CDB7DEB76C97DEBFCDBF1092E900809136
:1009E000E80083FFFBC168E0CE0145960E94CF027C
:1009F00082EF8093E8008D8987FF05C09091E80021
:100A000090FFFCCF03C09EEF9093E800982F907664
:100A100009F0C6C09E894F89588D2F89F88C911195
:100A20000CC0803829F480913D018093F10002C010
:100A30001092F1001092F10045C1913051F48111F2
:100A400041C14130510509F03DC180913D018D7F8B
:100A50000BC0933061F4811135C14130510509F06B
:100A600031C180913D01826080933D012BC1953061
:100A700049F48091E80080FFFCCF822F806880934A
:100A8000E30020C1963009F05EC00B8D1C8D22E082
:100A90001092E9001092390110923801F21232C01E
:100AA00010923701109236010E949D0299E0BE011A
:100AB0006F5F7F4FDB01E92F1D92EA95E9F799837C
:100AC000FA8291E09E8390EA98879AEF9987209125
:100AD000380130913901275F3F4F3C832B838D8351
:100AE0001092E900109239011092380110933701E9
:100AF0000093360149E050E080E00E9476020E94B7
:100B00009D02E0C010933701009336010E943C0122
:100B1000DC0112960D911C9113970115110509F432
:100B2000BBC0D801ED91FC910480F581E02DBE01A0
:100B30006B5E7F4FC8010995009709F0C7C0F801A7
:100B400000851185EACF973009F445C1983021F42A
:100B500081E08093F100B6C0993009F0B3C0837092
:100B600009F039C1EFE1F1E081E031E096E3208165
:100B7000211109C08EE78093EA001092EA008F8964
:100B80008093A4019FC08093E9003093EB002191F2
:100B90002093EC009093ED008F5F873041F7EACF10
:100BA0008B8D9C8D1092E9001092390110923801C2
:100BB0009093370180933601898D811153C08E89BE
:100BC0009D89913A49F4813209F005C147E050E02E
:100BD00064E071E080E0BBC0913209F0FCC0833278
:100BE00069F48F89988DA0E0B0E080930001909324
:100BF0000101A0930201B093030164C0803269F443
:100C00008091E80082FFFCCF67E084E091E00E94E1
:100C1000CF028BEF8093E80055C0823209F052C0BA
:100C20008F8980930B01EEEFFFE7859194918B3FC5
:100C30009C4D19F0E0E0F8E002C0EEEFFAE08091A0
:100C4000040190910501A0910601B0910701803B3C
:100C50009440A105B10509F09EC080910B0180FF71
:100C600079C099C00E943C01FC01028113810115E9
:100C7000110509F4B0C0D801ED91FC910190F0810B
:100C8000E02DBE016B5E7F4FC801099581111AC02E
:100C9000F80100851185EBCFF1E0FF1609F44EC095
:100CA000F3E0FF1298C08F89882309F44AC082308C
:100CB00089F440E86BE08EE291E00E9441028823D3
:100CC00009F489C08EEF8093E80088C018161906D1
:100CD000CCF381C0813029F440E86BE082E291E0FE
:100CE000ECCF833009F077C00E943C01DC01129602
:100CF000ED90FC9013978E010F5F1F4F6801E11478
:100D0000F10479F0D701ED91FC910680F781E02D97
:100D1000B801C7010995080F111DF701E084F1849E
:100D2000EECFD8011C92F60101900020E9F731972F
:100D3000BF016C197D0940E0C601BFCF60E171E0E1
:100D400002C06CE071E0FB01449150E080E80E9439
:100D50007602B8CFEE3F2AE0F20751F08081918110
:100D60008737A7E79A0721F09093FF0A8093FE0A3E
:100D700087E797E7918380838091600080933A01B1
:100D80009BE088E10FB6F894A895809360000FBEB1
:100D90009093600097CF808191818737974709F0C2
:100DA00091CFA895809160008861809360008091C8
:100DB0003A0180936000EE3FBAE0FB0739F0809182
:100DC000FE0A9091FF0A918380837CCF1092FF0AE4
:100DD0001092FE0A77CF81E28093EB006C960FB6FB
:100DE000F894DEBF0FBECDBFDF91CF91FF91EF91A1
:100DF000BF91AF919F918F917F916F915F914F9133
:100E00003F912F911F910F91FF90EF90DF90CF9026
:100E10000F900FBE0F901F901895789484B5826044
:100E200084BD84B5816084BD85B5826085BD85B58E
:100E3000816085BD80916E00816080936E0010920C
:100E40008100809181008260809381008091810087
:100E50008160809381008091800081608093800018
:100E600080919100826080939100809191008160D7
:100E70008093910080919000816080939000809198
:100E8000C10084608093C1008091C1008260809322
:100E9000C1008091C10081608093C1008091C30036
:100EA00081608093C3008091C00082608093C00005
:100EB0008091C20081608093C20080917A0084603A
:100EC00080937A0080917A00826080937A0080918A
:100ED0007A00816080937A0080917A0080688093A4
:100EE0007A001092A40110923D0110923C01809171
:100EF000D70081608093D70080EA8093D80089B5BD
:100F0000806189BD89B5826089BD09B400FEFDCFCD
:100F100061E070E080E090E00E94D9018091D8000B
:100F20008F7C80618093D8008091E000807F8093E7
:100F3000E0008091E1008E7E8093E1008DE080935F
:100F4000E200559A209A8FEF9FEF90934B01809388
:100F50004A01E1E8F1E02491E3E6F1E0849188239D
:100F600099F090E0880F991FFC01E65CFE4FA59177
:100F7000B491FC01E85BFE4F859194918FB7F89492
:100F8000EC91E22BEC938FBFC0E0D0E08EE391E0D8
:100F90000E94B10382359105F1F461E08DE00E9479
:100FA000500160ED77E080E090E00E94D90160E0C0
:100FB0008DE00E9450014CE050E065E271E08EE36C
:100FC00091E00E94060342E050E062E371E08EE3AC
:100FD00091E00E9406032097C9F20E940000D6CF3C
:100FE000EEE3F1E01382128288EE93E0A0E0B0E03D
:100FF00084839583A683B78380E191E09183808386
:101000008FEF9FEF958784870895EE0FFF1F059060
:10101000F491E02D099481E090E0F8940C9410088C
:04102000F894FFCF72
:10102400FFFFFFFF00E100000000000000000000DF
:101034008C030603AD03A203F303B103CF0300C182
:10104400808100000048656C6C6F20576F726C647F
:0610540021000D0A00005E
:00000001FF
